:100000000C94EC000C9414010C9414010C94140145
:100010000C9414010C9414010C9414010C9414010C
:100020000C9414010C9414010C9422190C94911941
:100030000C9414010C9414010C9414010C941401EC
:100040000C9414010C9414010C9414010C941401DC
:100050000C9414010C9414010C9414010C945D1B69
:100060000C9414010C942B1B0C94051B0C94140180
:100070000C9414010C9414010C9414010C941401AC
:100080000C9414010C9414010C9414010C9414019C
:100090000C9414010C9414010C9414010C9414018C
:1000A0000C9414010C9414010C94140106F1FF0A31
:1000B00001FFA1010901150026FF00750895408187
:1000C0000209029540910209039501B102C004039F
:1000D000090412010002000000406D0457C502151A
:1000E000010200014D505230342E30325F42303028
:1000F0003039004C6F67697465636800383836348E
:100100004338464532424630323344350055534237
:10011000205265636569766572000000000200097F
:100120000F0000030401000C0000000000000000AC
:100130000000000000000000000000000025002872
:10014000002B002E00310000000000240027002AB0
:10015000002D00300004040404040304050202021C
:100160000204030202020206060606060604040250
:100170000202040404080201104080401020408064
:1001800040800802040180402010020110801020ED
:1001900040402005010902A10185010901A10005D6
:1001A00009190129051500250175019505810275BB
:1001B000039501810105010930093116018026FFEF
:1001C0007F75109502810609381581257F75089580
:1001D000018106C0C000951C11241FBECFEFDAE0DC
:1001E000DEBFCDBF25E0A4E0B2E001C01D92A9347E
:1001F000B207E1F712E0A0E0B1E0E6EAF2E502C002
:1002000005900D92A430B107D9F710E0CCEED0E004
:1002100004C02197FE010E943427CB3ED107C9F7C5
:100220000E948D1E0C9451290C9400008CBD9DBD24
:10023000089590E0FC01EC58FE4F24918B5A9E4F9C
:10024000FC018491882399F090E0880F991FFC01AC
:10025000E95BFE4FA591B491FC01E75CFE4F8591EF
:1002600094918FB7F894EC91E22BEC938FBF0895A3
:1002700040912A0250912B022091280230912902AC
:1002800042175307B4F49091E8009570E1F3909110
:10029000E80092FD19C08093F10080912A029091AC
:1002A0002B0201968F739927892B19F48EEF809377
:1002B000E80080912A0290912B02019690932B02E4
:1002C00080932A0281E0089580E00895DF92EF9202
:1002D000FF920F931F93CF93DF93D82E8A01EB01E8
:1002E0007B01E40EF51ECE15DF0559F0D7FE12C0D6
:1002F000FE0184910E94380121968111F4CF0FEF05
:100300001FEFC801DF91CF911F910F91FF90EF90E8
:10031000DF9008958881EECF615030F02091F10098
:10032000FC0120830196F8CF289884E680932C0264
:100330000895AF92BF92DF92EF92FF920F931F93B7
:10034000CF93DF935C018B01EB019BEFD92E2097BC
:10035000C1F07E01C134D1051CF080E4E82EF12CFF
:100360008091E80082FFFCCFC8018C1B9D0B6E2D95
:100370008A0D9B1D0E948C01D092E800CE19DF09E6
:10038000E6CFC801DF91CF911F910F91FF90EF90C1
:10039000DF90BF90AF900895AF92BF92CF92DF925F
:1003A000EF92FF920F931F93CF93DF936C017B012A
:1003B0008B01040F151FEB015E01AE18BF08C017BB
:1003C000D10759F06991D601ED91FC910190F0812E
:1003D000E02DC6010995892B79F7C501DF91CF91F1
:1003E0001F910F91FF90EF90DF90CF90BF90AF9053
:1003F00008958091190281110BC01092150281E0BD
:10040000809316021092180210921702809319021C
:1004100085E192E008950F931F93CF93DF931F928E
:10042000CDB7DEB719820E94F901DC0112960D9159
:100430001C910115110589F0D801ED91FC91028004
:10044000F381E02DBE016F5F7F4FC801099597FDD5
:1004500004C0F80100851185ECCF89810F90DF91F0
:10046000CF911F910F910895CF93DF93FC01DB0192
:10047000818114963C911497682F630F7727771F1B
:10048000683071059CF5C281D381209739F5B3831B
:10049000A283908112969C93129713968C93139734
:1004A00015968C911597890F808390E080E08317D3
:1004B00008F52181C22FD0E0BE016F5D7D4F1696F9
:1004C0004D915C911797480F591FEA014881EB0144
:1004D00048832F5F21830196EACFEA014885598539
:1004E00041155105D1F7B987A887D3CF80E0DF91B7
:1004F000CF91089581E0FBCFFC01538D448D252FD2
:1005000030E0842F90E0821B930B541710F0CF96AD
:10051000089501970895FC01918D828D981761F0DF
:10052000A28DAE0FBF2FB11D5D968C91928D9F5FF6
:100530009F73928F90E008958FEF9FEF0895FC01D5
:10054000918D828D981731F0828DE80FF11D858D88
:1005500090E008958FEF9FEF0895FC01918D228D1B
:10056000892F90E0805C9F4F821B91098F739927A0
:1005700008958AE792E00E94AD0221E0892B09F4F8
:1005800020E0822F089580E090E0892B29F00E94DE
:10059000B90281110C9400000895FC01A48DA80FEC
:1005A000B92FB11DA35ABF4F2C91848D90E00196B5
:1005B0008F739927848FA689B7892C93A089B189D5
:1005C0008C9182748C93938D848D981306C00288CD
:1005D000F389E02D80818F7D80830895EF92FF92D3
:1005E0000F931F93CF93DF93EC0181E0888F9B8D56
:1005F0008C8D981319C0E889F989808185FF14C012
:100600009FB7F894EE89FF896083E889F989808132
:10061000827480839FBF81E090E0DF91CF911F9132
:100620000F91FF90EF900895F62E0B8D10E00F5F65
:100630001F4F0F731127E02E8C8D8E110CC00FB63B
:1006400007FCFACFE889F989808185FFF5CFCE01D3
:100650000E94CD02F1CFEB8DEC0FFD2FF11DE35A7F
:10066000FF4FF0829FB7F8940B8FEA89FB89808156
:100670008062CFCFCF93DF93EC01888D8823B9F0D0
:10068000AA89BB89E889F9898C9185FD03C080819D
:1006900086FD0DC00FB607FCF7CF8C9185FFF2CF1A
:1006A000808185FFEDCFCE010E94CD02E9CFDF91A1
:1006B000CF9108953FB7F894809111029091120262
:1006C000A0911302B091140226B5A89B05C02F3F3C
:1006D00019F00196A11DB11D3FBFBA2FA92F982F68
:1006E0008827BC01CD01620F711D811D911D42E063
:1006F000660F771F881F991F4A95D1F708958F922B
:100700009F92AF92BF92CF92DF92EF92FF924B01F6
:100710005C010E945A036B017C010E945A036C1910
:100720007D098E099F09683E734081059105A8F3F4
:1007300021E0821A9108A108B10888EEC80E83E072
:10074000D81EE11CF11C81149104A104B10429F705
:10075000FF90EF90DF90CF90BF90AF909F908F90E1
:1007600008956F927F928F929F92AF92BF92CF9295
:10077000DF92EF92FF920F931F93CF93DF93C82ED8
:100780008B017A0180913002811111C08FEF9FEFB0
:10079000DF91CF911F910F91FF90EF90DF90CF905D
:1007A000BF90AF909F908F907F906F9008958091B1
:1007B0002E0280FF05C08091E00082608093E000FF
:1007C000CE2DDF2DD12C8AEFB82E8C2D8770982E50
:1007D00090E4892E8C2D8072782E8C2D8074682E5A
:1007E0002AE3A22E209719F4DD2009F45DC08FB70B
:1007F000F8949092E9009091E80095FD0BC08FBFAE
:10080000BA94BB2019F261E070E080E090E00E94B1
:100810007F03E8CF9091F200282D291B8FBF222360
:1008200079F32C171D0611F00CF02C2F3FB7F8941C
:100830009092E9008091E80085FD02C03FBFD2CFD1
:10084000822F90E0C81BD90B772029F02150A0F00F
:100850001092F100FBCFF801C7FC0AC0215050F004
:1008600041914093F100FACF44914093F1003196C9
:100870002150D0F7080F191FDD2021F0A092E800C9
:10088000D12CDCCF8091E80085FD07C0A092E80064
:10089000DD24D394209791F2F3CF209779F6662048
:1008A00069F2A092E800CACF5D9884E680932D0299
:1008B000C7016ECF2FB7F89460910D0270910E02B0
:1008C00080910F02909110022FBF08950F931F93F4
:1008D0000E945A0460938202709383028093840280
:1008E000909385028AE792E00E948B0297FF1DC0D9
:1008F0000E945A0400918202109183022091840286
:1009000030918502601B710B820B930B00917E026C
:1009100010917F022091800230918102601771074F
:1009200082079307F8F28FEF9FEF1F910F910895C1
:10093000DC01FB0112962C91129784819581281776
:10094000190641F491818081813A31F49D7F81E0E3
:10095000913009F080E008958132E1F79B3029F46D
:1009600082811F968C9381E008959A3099F7828155
:1009700050968C93F8CFDC01FB0188E4808389E4F6
:10098000818384E482831D969C911D979F709F5B59
:1009900093831D968D919C9124E0969587952A9539
:1009A000E1F78F708F5B848385E00895EF92FF926B
:1009B0000F931F93CF93DF93FB012081213871F5B3
:1009C0002381223259F5DC0112964C912481358124
:1009D0004217130619F5EC010B851C85F12CE12C4F
:1009E0000115110589F0F8014481558162817381F7
:1009F00080E80E9466018F3F980749F0E80EF91ED3
:100A0000D8010D911C91ECCF81E08F87C701DF9158
:100A1000CF911F910F91FF90EF90089590E080E0AB
:100A2000F6CFCF93DF93CDB7DEB769970FB6F894C3
:100A3000DEBF0FBECDBFFC01DB018C918F5F8C93BD
:100A40009E012D5F3F4F8DE0D9011D928A95E9F7F8
:100A500029E0298384E08A8391E09D8383E08E836B
:100A60009F8332E038872A8721E22B8721E12C8778
:100A70009D879F8722E2288B27E02B8B25E02C8BFC
:100A80008E8B20E430E0388F2F8B998F82818B837F
:100A900095858685998B8A8B838180688D8B49E1CA
:100AA00050E0BE016F5F7F4F80E00E946601699653
:100AB0000FB6F894DEBF0FBECDBFDF91CF91089582
:100AC0000F931F93CF93DF93FC018B01EA01808189
:100AD0009181892B31F19281992349F128813981C2
:100AE000232BF9F0D8012D913C91D9014C918381B0
:100AF000682F691B770B80819181860F971FDC011E
:100B00004C93828181508283888199810197998356
:100B10008883D8018D919C91119701968D939C9318
:100B2000DACF80E0DF91CF911F910F9108958381FB
:100B3000828381E0F7CF3F924F925F926F927F92D4
:100B40008F929F92AF92BF92CF92DF92EF92FF92DD
:100B50000F931F93CF93DF9300D000D0CDB7DEB7B4
:100B60006C017A8369835C834B8384E0482E360171
:100B700082E1680E711C93E0392E5601A7E0AA0E9F
:100B8000B11C12E0552453944601B0E18B0E911C28
:100B900029813A812115310509F4CBC0F60180A1E4
:100BA0008230F1F0A8F5882309F457C0813091F71D
:100BB000AE014F5F5F4FBE016D5F7F4FC5010E9469
:100BC0006005882309F4B5C0D6011596ED91FC9116
:100BD0001697808191968C939197818192968C93B0
:100BE000F6017682658230A2D60192968C91929718
:100BF000843011F493961C92F60181A18250848373
:100C000025813681308727838287818740A205C06E
:100C1000833051F3843009F0BDCFD60192968C9188
:100C20009297843019F1853009F44CC0823009F074
:100C300073C0AE014F5F5F4FBE016D5F7F4FC50157
:100C40000E946005882309F474C0F601858984A395
:100C5000F6019682858210A29BCF148385819681AE
:100C6000908787831287118750A2A2CFAE014F5F72
:100C70005F4FBE016D5F7F4FC5010E9460058823F5
:100C800009F457C0D60155968C915597833001F7DA
:100C900098968C9198978111DBCF93965C9293975D
:100CA00052968C91529796968C93969753968C91D8
:100CB000539797968C93979757968C9157979596AD
:100CC0008C93C6CFAE014F5F5F4FBE016D5F7F4F0C
:100CD000C5010E946005882361F1F60183A1882384
:100CE00009F4B6CF82819381009709F4B1CFDC017A
:100CF000ED91FC910190F081E02D7401D601959663
:100D00000C91959797962C91979796964C919697CC
:100D100094966C9109959CCFF60185858823F9F00E
:100D2000813041F1D6011E968D919C91892B09F459
:100D30008FCF0F900F900F900F90DF91CF911F9159
:100D40000F91FF90EF90DF90CF90BF90AF909F906A
:100D50008F907F906F905F904F903F900895919605
:100D60008C9191978250990B1F969C938E931E970E
:100D70001D965C9229813A818B819C81782F692F05
:100D8000F601468557854115510581F001962115DB
:100D9000310539F0415051095787468721503109B3
:100DA000EDCF7B836C831A821982BCCF9C838B83AB
:100DB0003A8329831586B6CFCF93DF93EC018C81DC
:100DC0009D81DC01ED91FC910480F581E02D6E8127
:100DD000099581E08E8F1E821F8E18A219A21AA279
:100DE0001CA280E0DF91CF910895FC01DC01A65A9E
:100DF000BF4F8C918823A1F08781681741F08285CD
:100E000021E030E0681729F090E080E0089530E0BC
:100E100020E0C901880F991F820F931FE80FF91F67
:100E2000808591850895FC018781811104C08085AA
:100E30009185892B59F08285811106C0838594851F
:100E400021E030E0892B21F080E0089530E020E0BF
:100E5000C901880F991F820F931FE80FF91F67833D
:100E60005187408781E008950895DF92EF92FF92C5
:100E70000F931F93CF93DF93EC0185E0E62EF12CC7
:100E8000FE01869FE00DF11D1124908596FF24C080
:100E9000192F177001E085E0D82E8FEF800F8F306B
:100EA00008F001E0602F70E0062FD69EF001D79E7B
:100EB000F00D1124EC0FFD1F808586958695869593
:100EC0008770181701F16F5F7F4F603168F38D8174
:100ED000811302C011501D8385E08E9DF0018F9D0E
:100EE000F00D1124EC0FFD1F108681E08187128622
:100EF0002296D783C683DF91CF911F910F91FF90E8
:100F0000EF90DF900895CE010E943507C6CFFC0117
:100F100020812EBD9B012150310941F051810DB43A
:100F200007FEFDCF4EB55EBD4193F5CF615071090F
:100F3000860F971F0DB407FEFDCF2EB5FC01208351
:100F40000895FC0121E0613499F49C01255B3F4F39
:100F500061E0AC014E5F5F4F158666871786548748
:100F6000438735962E173F07B9F7FC011582089580
:100F70003585631729F02F5F35962031C9F708951D
:100F8000622F0C943507CF93DF93FC0167FD12C0ED
:100F9000283080F4442319F08581873059F0EF011F
:100FA000A1E0B0E08D85882349F111962596A03106
:100FB000B105C1F780E018C085E08A9FE0018B9FF2
:100FC000D00D1124CE0FDF1F442389F081E48887E0
:100FD00085818F5F858325E02A9FC0012B9F900D1F
:100FE0001124E80FF91F8085DF91CF91089581E0EA
:100FF0008887F1CF2770687B622B0FC06623E1F2F0
:101000006770660F660F660F4423A1F360648581E5
:101010008F5F85838770687F682B25E02A9FC001DA
:101020002B9F900D1124E80FF91F6087862FDCCFCE
:10103000FC0121E0611102C0069608953585631711
:1010400039F02F5F35962031C9F790E080E00895A0
:10105000069635E0239F800D911D112408952E984A
:1010600008952E9A089508950F931F93CF93DF93B9
:10107000D82FC62F8A0180E591E00E9416010E94B8
:101080002F08D260DEBDF8018C2F882339F00DB413
:1010900007FEFDCF91919EBD8150F7CFC00FD12F9C
:1010A000D11D0DB407FEFDCF0E943108CE01DF91A6
:1010B000CF911F910F9108950F931F93CF93DF93BB
:1010C00000D0CDB7DEB7182F062F80E591E00E9443
:1010D00016010E942F08126019830A8362E070E0F3
:1010E000CE0101960E9487070E9431080F900F9051
:1010F000DF91CF911F910F9108958EBD00000DB427
:1011000007FEFDCF8EB50895CF93C82F80E591E0FF
:101110000E9416010E942F088C2F0E947D0880E0FB
:101120000E947D08C82F0E9431088C2FCF9108950E
:101130008F929F92AF92BF92CF92DF92EF92FF92E7
:101140000F931F93CF93DF93882E962E5A010E9400
:101150005A046B017C0128E8C20E23E1D21EE11C77
:10116000F11C10E000E0D0E0C0E098280E945A0492
:101170006C197D098E099F0997FF1EC0692D80EFAC
:101180000E945C080E945A046C197D098E099F090F
:1011900097FF09C088EC0E94840887FFF3CF60E8BE
:1011A00088EC0E945C0888EF0E948408C82FCF70EA
:1011B000C43081F0CE30B9F08C2FDF91CF911F91E8
:1011C0000F91FF90EF90DF90CF90BF90AF909F90E6
:1011D0008F9008950F5F1F4FA114B10439F20A15C3
:1011E0001B0521F6E9CFDF5FD33009F0BFCFE4CF95
:1011F000AF92BF92CF92DF92EF92FF920F931F9325
:10120000CF93DF93EC01B62EA42E69010E9418083B
:101210007C0186EDE114F10409F447C0D701ED919A
:10122000FC91119787ED309709F43FC013969C917C
:1012300080E0981731F02081A21629F033968F5F55
:10124000F8CFF0E0E0E0D601ED93FC938BED309722
:1012500061F1228126952695203108F02FE081E06A
:1012600090E0A0E0B0E004C0880F991FAA1FBB1F48
:101270002A95D2F70197F801918380836B2D80EE38
:101280000E945C0888ED0E948408D70114969C9106
:10129000682F697F992329F0CA58DF4F68816260FF
:1012A000682B88ED0E945C0880E0DF91CF911F9150
:1012B0000F91FF90EF90DF90CF90BF90AF90089587
:1012C00088EF0E948408807C8034B1F018F4882371
:1012D00001F10895803819F0803CC9F0089588ED37
:1012E0000E94840881FD0DC069EC88ED0E945C08B5
:1012F00082E080937902089588ED0E94840881FD40
:10130000F3CF6BEC88ED0E945C0883E0F2CF81E0C4
:10131000F0CF61ED88ED0E945C081092790208958B
:101320000F931F93CF93DF93EC01FB012A818481FC
:1013300095812817190641F491818081813A31F411
:101340009D7F81E0913049F080E007C08132E1F774
:101350009B3041F482818F8B81E0DF91CF911F918F
:101360000F9108959A3019F48381888FF5CF9930C1
:1013700059F7068117818381833081F489A19AA16D
:101380000817190709F7B8018F8D98A10E949901D4
:1013900089A19AA190689AA389A3DECF8230A1F691
:1013A0008B8D9C8D892B81F6898D9A8D8017910765
:1013B0005CF2801B910B2D8D3E8DB801820F931F27
:1013C0000E9499011C8F0B8FC7CFFB012081213810
:1013D000B1F42381223299F4DC0112964C911297D8
:1013E000248135814217130651F421E057962C933E
:1013F00042E250E06CEA70E080E80C94660190E014
:1014000080E00895CF93DF93CDB7DEB769970FB62D
:10141000F894DEBF0FBECDBFFC01DB019C919F5F46
:101420009C939E012D5F3F4F81E1D9011D928A95CA
:10143000E9F729E0298384E08A8391E09D8383E0B2
:101440008E832A8721E22B879C879D879F8722E2B4
:10145000288B298B27E02B8B25E02C8B8E8B20E48F
:1014600030E0388F2F8B998F82818B8383818068C6
:101470008D8B49E150E0BE016F5F7F4F80E00E949D
:10148000660169960FB6F894DEBF0FBECDBFDF913F
:10149000CF910895FC01838180640C94B103CF93B4
:1014A000DF931F92CDB7DEB76983DC01ED91FC912C
:1014B0000288F389E02D41E050E0BE016F5F7F4F6D
:1014C00009950F90DF91CF9108950A970C944F0AD8
:1014D00008950895DC015B968D919C915C97181698
:1014E000190674F459962D913C915A97281B390B83
:1014F0005D96ED91FC91E20FF31F808190E00895DD
:101500008FEF9FEF08950A970C946A0AFC01438DB0
:10151000548D141615068CF4858D968D218D328D83
:10152000BA0161507109748F638FF901E41BF50BE7
:10153000E80FF91F808190E008958FEF9FEF0895E5
:101540000A970C94860AFC018189928997FF02C050
:1015500090E080E00895FC01838D948D97FF02C098
:1015600090E080E00895FC0182818F5BFB01808325
:1015700081E0089590E080E00895EF92FF920F934C
:10158000FC01368D323018F0348D361302C00E94C3
:10159000D11B0F91FF90EF900895EF92FF920F9360
:1015A00002970E94BD0A0F91FF90EF900895089551
:1015B000EF92FF920F931F93422F202F8701DC01A0
:1015C000ED91FC9100A0F1A1E02D09951F910F91E3
:1015D000FF90EF90089581E00895FC0184A10895A3
:1015E000FC018681089580E0089581E0089580E0FF
:1015F000089580E00895089580E0089520910502FF
:10160000283041F481382FEF92075CF08038910543
:101610005CF40895811520E8920741F481E090E898
:10162000089581E89FEF08958FE790E00895DF9295
:10163000EF92FF920F931F93CF93DF9300D000D0D0
:1016400000D01F92CDB7DEB77C018B01D42E8091E4
:101650003D048983C7010E94FE0A8A83C7010E9454
:10166000FE0A9B83C8010E94FE0A8C83C8010E9467
:10167000FE0A9D83DE828091270481112CC011E037
:1016800010931A0410931B0480E294E090931D04BD
:1016900080931C0410921F0410921E048AEB91E0A8
:1016A0009093170480931604109222041092210440
:1016B00010922404109223041093250410932604FE
:1016C00081EC809320040E94F90166E174E00E949D
:1016D00034021093270481E08F8341E050E0BE0183
:1016E000695F7F4F809119040E94B10397FD0AC082
:1016F0008091190446E050E0BE016F5F7F4F806427
:101700000E94B10327960FB6F894DEBF0FBECDBF7F
:10171000DF91CF911F910F91FF90EF90DF9008958F
:101720001F93CF93DF93CDE3D4E01881812F8160A5
:10173000888340E070E060E090E080E00E94170B5A
:10174000188340E070E060E090E080E0DF91CF91AE
:101750001F910C94170BEF92FF920F931F93CF934F
:10176000DF938C01EB01892BF9F0C80181589F4F61
:101770008F3F910598F091E8E92EFF24FA94101616
:1017800011061CF48FE7E82EF12C40E070E060E0D9
:10179000C7010E94170B0E191F09E7CF40E070E048
:1017A00060E0C8010E94170B209711F1CE0181580B
:1017B0009F4F8F3F910580F001E81FEF1C161D061B
:1017C00014F40FE710E040E0B80190E080E00E94E0
:1017D000170BC01BD10BEACF40E0BE0190E080E0C8
:1017E000DF91CF911F910F91FF90EF900C94170B09
:1017F000DF91CF911F910F91FF90EF900895CF92BD
:10180000DF92FF920F931F93CF93DF93F62E01E0A9
:10181000C82FD0E0CC0FDD1FCE52DC4F6E01888187
:101820009981DC01ED91FC910280F381E02D2F2D57
:1018300040E060E00995182F803E49F561E088EEB0
:101840000E945C0866E670E080E090E00E947F0302
:10185000F60180819181DC01ED91FC910190F08194
:10186000E02D2F2D40E060E00995182F8D3041F5D7
:101870008FEF800F833088F061E088EE0E945C0873
:1018800066E670E080E090E00E947F0310C08D303B
:1018900061F48FEF800F833050F464E670E080E0F5
:1018A00090E00E947F030F5FBACF882389F2812FD7
:1018B000DF91CF911F910F91FF90DF90CF9008950E
:1018C0008823A9F3D9CF2F923F924F925F926F92C4
:1018D0007F928F929F92AF92BF92CF92DF92EF92C0
:1018E000FF920F931F93CF93DF937B013A0169011E
:1018F000F901A080B180FB013180F90111821082D1
:10190000FB01828160E181FD60E288EE0E945C085B
:101910002A2CA301F701608180E00E949808582ECC
:10192000F6E08F1310C088EF0E948408F7019281BF
:101930009D7F84FF9260928360E191FD60E288EE7A
:101940000E945C08E6CF811150C088EC0E94840898
:1019500082FF5FC080E30E948408482E8A151B0422
:1019600011F008F0422CF60180819181E501C81B3D
:10197000D90BD7FF02C0D0E0C0E0842C912C8C168C
:101980009D060CF4E40180E591E00E9416010E949E
:101990002F0888E00E947D08AE0170E060E0C80179
:1019A0000E942A29209721F0BE01C8010E948707C2
:1019B0000C0F1D1F0E94310864E088EC0E945C0837
:1019C000F60180819181880E991E91828082431454
:1019D00020F08A149B0408F49CCF88EF0E948408AE
:1019E000F701928184FB91F99283852DDF91CF914C
:1019F0001F910F91FF90EF90DF90CF90BF90AF902D
:101A00009F908F907F906F905F904F903F902F901E
:101A1000089580EF582EE9CFAF92BF92CF92DF9218
:101A2000EF92FF920F931F93CF93DF9300D000D0DC
:101A3000CDB7DEB77C01690158011C821B821A8276
:101A400019828E010F5F1F4F9E012D5F3F4F0E9435
:101A5000F808811109C049815A816B817C81850117
:101A60009601C7010E94630C0F900F900F900F908A
:101A7000DF91CF911F910F91FF90EF90DF90CF906A
:101A8000BF90AF9008954F925F926F927F928F9226
:101A90009F92AF92BF92CF92DF92EF92FF920F93FD
:101AA0001F93CF93DF93CDB7DEB7C254D1090FB6E2
:101AB000F894DEBF0FBECDBFDC0194962C912111AE
:101AC0001AC0612C862DCE5BDF4F0FB6F894DEBFB7
:101AD0000FBECDBFDF91CF911F910F91FF90EF907F
:101AE000DF90CF90BF90AF909F908F907F906F903E
:101AF0005F904F9008957C010E945A04F701878CF3
:101B000090A0A1A0B2A0681979098A099B0997FD44
:101B1000D8CF0E945A04D70193962C91620F711D61
:101B2000811D911DF701678F70A381A392A3712C72
:101B30006E01F1E4CF0ED11C30E4832E912C5701BD
:101B40008AE5A80EB11CD7015D968C91781608F035
:101B5000B8CFE72DF0E07296EE0FFF1FEE0FFF1FDC
:101B6000EE0DFF1D8081E82FF0E0CF01880F991F57
:101B7000DC01AE0FBF1FAE0DBF1D96962C9130E05D
:101B8000D6012D933C93DE0111962D011D92AC15CB
:101B9000BD05E1F7E80FF91FEE0DFF1D820196016B
:101BA00045A1F7016681848195810E940C0D682E04
:101BB000811188CFD6018D919C9111978134910527
:101BC00010F08D929C92D701ED91FC9100A0F1A1B3
:101BD000E02D8201D6012C91D5014C91B701C701AE
:101BE0000995D701ED91FC910288F389E02DD5018B
:101BF0008C9181116980662DC7010995009769F064
:101C0000DC01ED91FC910190F081E02D8201D60183
:101C10002C91D5014C91B7010995739494CF3F92C3
:101C20004F925F926F927F928F929F92AF92BF92EC
:101C3000CF92DF92EF92FF920F931F93CF93DF9398
:101C4000CDB7DEB7C254D1090FB6F894DEBF0FBED0
:101C5000CDBFDC0194962C91222309F4A1C06C0124
:101C60000E945A04F601878C90A0A1A0B2A0681926
:101C700079098A099B0997FD93C00E945A04D601ED
:101C800093962C91620F711D811D911DF601678F36
:101C900070A381A392A3312C5E01F1E4AF0EB11CBD
:101CA00046018AE5880E911CD6015D968C91381606
:101CB00008F076C0E32DF0E07296EE0FFF1FEE0FF6
:101CC000FF1FEC0DFD1D6080662009F467C0712CBC
:101CD0007301EE0CFF1CF701E60DF71DEC0DFD1D69
:101CE00086A190E0F50191838083FE0131962F015A
:101CF0001192EA15FB05E1F7F701E60DF71DEC0D72
:101D0000FD1D8201950145A1D60116966C9116978D
:101D100014968D919C910E940C0D182F81113EC03C
:101D2000F501808191810097C9F18134910520F0FE
:101D300080E490E091838083E60CF71CD601AE0D21
:101D4000BF1DF60180819181FC01608C718C720154
:101D5000F5010081F401208195964C91B601C601F0
:101D6000F3010995D601ED91FC910288F389E02DEC
:101D7000D4018C9181111981612FC60109950097B9
:101D800069F0DC01ED91FC910190F081E02D820180
:101D9000D5012C91D4014C91B6010995339484CF8F
:101DA00080E0CE5BDF4F0FB6F894DEBF0FBECDBF35
:101DB000DF91CF911F910F91FF90EF90DF90CF9027
:101DC000BF90AF909F908F907F906F905F904F905B
:101DD0003F9008954F925F926F927F928F929F9261
:101DE000AF92BF92CF92DF92EF92FF920F931F9329
:101DF000CF93DF93CDB7DEB7C254D1090FB6F894B5
:101E0000DEBF0FBECDBFDC0194962C9121111AC00C
:101E1000612C862DCE5BDF4F0FB6F894DEBF0FBE70
:101E2000CDBFDF91CF911F910F91FF90EF90DF9089
:101E3000CF90BF90AF909F908F907F906F905F906A
:101E40004F9008957C010E945A04F701878C90A05E
:101E5000A1A0B2A0681979098A099B0997FDD8CF7A
:101E60000E945A046F5F7F4F8F4F9F4FD7015F963D
:101E70006D937D938D939C939297712C6E01B1E439
:101E8000CB0ED11C5701EAE5AE0EB11C40E4842E06
:101E9000912CD7015D968C91781608F0B9CF872DDB
:101EA00090E0FC01EE0FFF1FEE0FFF1FEE0DFF1D78
:101EB000EA5BFF4F208122952695269523702230DC
:101EC00011F07394E6CFFC017296EE0FFF1FEE0F38
:101ED000FF1FEE0DFF1D8081E82FF0E0CF01880F7E
:101EE000991FDC01AE0FBF1FAE0DBF1D96962C9142
:101EF00030E0D6012D933C93DE0111962D011D9209
:101F0000AC15BD05E1F7E80FF91FEE0DFF1D8201CD
:101F1000960145A1F7016681848195810E940C0D8F
:101F2000682E811176CFD6018D919C9111978134C5
:101F3000910510F08D929C92D701ED91FC9100A03B
:101F4000F1A1E02D8201D6012C91D5014C91B70170
:101F5000C7010995D701ED91FC910288F389E02D25
:101F6000D5018C9181116980662DC7010995009773
:101F700009F4A7CFDC01ED91FC910190F081E02DF7
:101F80008201D6012C91D5014C91B701099599CFC9
:101F90002F923F924F925F926F927F928F929F9279
:101FA000AF92BF92CF92DF92EF92FF920F931F9367
:101FB000CF93DF93CDB7DEB766970FB6F894DEBF49
:101FC0000FBECDBF3C01442E322E202EEA8ACE8A8F
:101FD000EBA4FCA4CDA4DEA41E861D86188A1F8651
:101FE0008E01015F1F4F9E01235F3F4F0E94F80843
:101FF000582E81113BC139822A822A892B833E893E
:102000003C83BE82AD8298868F82AE014F5F5F4F68
:1020100068E080E20E9434084F855889642D80E191
:102020000E949808811140C1C114D10409F453C021
:102030000D851E85D80112968C91129737FE51C0DE
:10204000826012968C93540122242394A114B1042B
:1020500009F42FC1FC86EB864F8558896D857E85F6
:1020600086019E01255F3F4FC3010E94630C582EDD
:10207000B6E08B130EC088EF0E948408ED85FE85C4
:1020800085FB882780F98225928180FB91F99283D4
:10209000DDCF8111EBC0EFA5F8A93097A1F06B85DA
:1020A0007C850190F081E02D0190F081E02DC4014C
:1020B0008A199B099A8789879E01275F3F4FA6014E
:1020C0008FA598A909958B859C85A81AB90A8E15A4
:1020D0009F0508F0BBCF4F85588937FEE1C080EAE5
:1020E000E0C0816012968C93129711968C908FEFBE
:1020F000880D803408F0DAC02F8438880E945A0492
:102100009B01AC0128573C4E4F4F5F4F2A8B3B8BB6
:102110004C8B5D8BD80112968C9160E880FF60E457
:1021200088EE0E945C08512C912CE114F10409F412
:102130008CC03401E814F90408F437016E8AA60152
:10214000662D80E10E943408662D88E30E945C08B9
:10215000F8016081606280EF0E945C0888EC0E9458
:10216000840887FFFBCF60E888EC0E945C0888EF5A
:102170000E9484088F70582E198AB12CA12C5520EA
:1021800021F10E945A042A893B894C895D89621B8E
:10219000730B840B950B97FF18C036E0531609F4A8
:1021A00040C04EE05416B1F054E0551209C08FEF14
:1021B000A81AB80A2114310491F02A143B0479F4C6
:1021C00060E088E30E945C0842C0E618F708C60C8D
:1021D000D71CABCF99899F5F998B933089F360E0CF
:1021E00088E30E945C08D6016C9180E10E945C0843
:1021F0006E8988E30E945C08F8016081606280EF6C
:102200000E945C0888EC0E94840887FFFBCF60E88E
:1022100088EC0E945C0888EF0E9484088F70582E1A
:10222000AECF88EF0E94840885FB882780F9A1E063
:102230008A27F801928180FB90F9928360E890FFF1
:1022400060E488EE0E945C08CACF5110B9CF88EFD5
:102250000E948408D80112969C91129785FB90F9F0
:1022600012969C934F8558895520D1F0852D6696FE
:102270000FB6F894DEBF0FBECDBFDF91CF911F9197
:102280000F91FF90EF90DF90CF90BF90AF909F9015
:102290008F907F906F905F904F903F902F90089518
:1022A00080E8642D0E949808582EE0CF8AED582EC1
:1022B000DDCF4F855889552009F411CFD7CF8F92A4
:1022C0009F92AF92BF92CF92EF920F93CF931F92B4
:1022D0001F921F921F921F921F92912C812CB12C42
:1022E000A12CC12CE62E05E020E040E060E00E9439
:1022F000C80FC82F6CE271E080E090E00E947F037D
:102300000F900F900F900F900F900F908C2FCF91F8
:102310000F91EF90CF90BF90AF909F908F900895C6
:102320008F929F92AF92BF92CF92EF920F931F9294
:102330001F923F932F935F934F934A01B12CA12C8F
:10234000CC24C394E12C06E020E840E00E94C80FB2
:102350000F900F900F900F900F900F900F91EF90A4
:10236000CF90BF90AF909F908F9008952F923F9203
:102370004F925F926F927F928F929F92AF92BF9295
:10238000CF92DF92EF92FF920F931F93CF93DF9341
:10239000CDB7DEB7C158D1090FB6F894DEBF0FBE76
:1023A000CDBFDC0116963C9119ED311114C0B22E4F
:1023B000A42E162F3C01FC01E480F580D701ED919D
:1023C000FC910190F081E02D60E0C70109952C019E
:1023D0000097E1F416ED812FCF57DF4F0FB6F89439
:1023E000DEBF0FBECDBFDF91CF911F910F91FF9048
:1023F000EF90DF90CF90BF90AF909F908F907F90A5
:102400006F905F904F903F902F900895FC01C08097
:10241000D180C114D10409F4C5C11301F5E22F0E16
:10242000311CDC0111963C922E921496BC929E01B6
:1024300026593F4F48E050E060E0F30184819581E8
:102440000E949011082F8111B1C1AB960FADAB97CF
:10245000D201CD92DC92D701ED91FC910280F38103
:10246000E02D2A2D40E0612FC7010995F3018683F5
:1024700014ED882309F4AFCFE2969FADE29796A3BF
:10248000682F848195810E945F11182FD701ED91EB
:10249000FC91D20114961C92882359F00480F58196
:1024A000E02DD30116966C91C7010995F3011682B0
:1024B00092CF0190F081E02DD30116966C91C70167
:1024C0000995009709F486CFFC01B48201111CC064
:1024D000E4968EAD9FADE497F301E35AFF4F9183ED
:1024E0008083E6968EAD9FADE69732979183808389
:1024F000D30114968D919C91159716960C912114E9
:102500003104E9F408ED11C0033108F002E1402F75
:1025100050E09E0126593F4FF301668184819581E9
:102520000E949011082F882399F2D301ED91FC911C
:102530000480F581E02DC3010995102F4CCF602F49
:102540000E941808FC01892B09F428C1EC96DFAC25
:10255000EC9702833182208281E083832E01F1E4B3
:102560004F0E511CC3010296C058DF4F99838883D8
:10257000C058D040D2015096EE96BFAFAEAFEE97A6
:102580001D1509F489C082E191E0F20191838083F5
:10259000C058DF4FA881B981C058D040B383A2830F
:1025A00014821186128615861786168610A211A22D
:1025B00012A210A6EE968EAD9FADEE979683858300
:1025C0009087878394878387D30114960D90BC915D
:1025D000A02DC258DF4FB983A883CE57D040F30156
:1025E000F6801F921F9281E090E08C0F9D1F9F93B9
:1025F0008F931F9299E09F9349E0842E912CB12CE8
:10260000A12C52E0C52EE12E06E020E840E06F2D1F
:10261000C258DF4F88819981CE57D0400E94C80FA1
:10262000082F0F900F900F900F900F900F90811127
:102630007CCF8B809C805F924F92A1E0B0E0AC0F8A
:10264000BD1FBF93AF93C401B1E48B16910410F08A
:1026500080E490E09F938F93B12CA12C32E0C32EA5
:10266000E12E06E020E840E06F2DC258DF4F888160
:102670009981CE57D0400E94C80F082F0F900F901D
:102680000F900F900F900F9081114FCFF301868D17
:10269000823010F41F5F74CFD3015E961C915E9759
:1026A000123008F481C016960C911697602F14967C
:1026B0008D919C910E941808FC01892B21F00283C6
:1026C0003182208213831F921F921F921F921F92AA
:1026D0001F92912C812CB12CA12CC12CF301E48CE4
:1026E00009E020E040E06681848195810E94C80F66
:1026F000182F0F900F900F900F900F900F90811147
:102700004FC0F12CD3015D968C915D97F816D8F5EA
:102710008F2D90E0FC017296EE0FFF1FEE0FFF1F52
:10272000E60DF71D2081211102C0F394EBCFFC01CF
:10273000EE0FFF1FEE0FFF1FE60DF71DEA5BFF4FC9
:1027400080818770A82EB12C1F921F921F921F921A
:102750001F921F92912C812CC12CE12C0AE021E2C6
:1027600040E0F3016681848195810E94C80F082FA3
:102770000F900F900F900F900F900F908823A9F259
:10278000853099F2D2CEED91FC910688F789E02D43
:10279000C301099581E0F30184A31DCE06EDC5CEEA
:1027A000082FC3CE17ED17CE11ED15CEF201D18251
:1027B000C082BBCECF92DF92EF92FF920F931F9316
:1027C000CF93DF936C01EB01D90128813981C901D5
:1027D0000196998388832C0D3D1DF9019081FA01A2
:1027E00090839370933021F19C93F80110821182B1
:1027F000128213824C91442391F0C8017D0150E074
:10280000688179816C0D7D1D0E942129F7018081ED
:1028100028813981820F932F911D99838883DF91BD
:10282000CF911F910F91FF90EF90DF90CF9008957F
:1028300084E08C93DACF0F931F93CF93DF93EC0157
:102840008B01BA018E819F812C813D81AC01400FAB
:10285000511F2417350718F48901081B190B2A8109
:102860003B81A801820F931F0E9421298E819F81A5
:10287000080F191F1F830E83DF91CF911F910F91B6
:102880000895CF93DF93EC0188819981009711F02F
:102890000E94D627198218821D821C821B821A82EE
:1028A000DF91CF910895FC0180819181009711F013
:1028B0000C94D62708950E941C29FC0180819181E7
:1028C000009711F00C94522460E070E0CB01089561
:1028D000CF93DF93FC01248135814217530788F49D
:1028E000C081D181062E000C770BCE01840F951F7D
:1028F0000E943129009729F08C1B9D0BDF91CF910D
:1029000008958FEF9FEFFACFFB0144815581FC01C1
:10291000248135812417350778F0808191810097D3
:1029200059F0FB01608171816115710529F00E94E8
:10293000432921E0892B09F020E0822F08950F938D
:102940001F93CF93DF93EC0188819981009759F011
:102950002A813B812617370730F081E0DF91CF9144
:102960001F910F9108958B016F5F7F4F0E945F2829
:10297000009759F0998388831B830A832C813D81BA
:10298000232B59F7FC011082E8CF80E0E7CFEF92CC
:10299000FF920F931F93CF93DF936115710541F45D
:1029A00080E0DF91CF911F910F91FF90EF900895FC
:1029B00041155105B1F07B01EC010C811D81040F23
:1029C000151FB8010E949F14882351F32881398173
:1029D0008C819D81B701820F931F0E943C291D832A
:1029E0000C8381E0DECFEF92FF920F931F93CF9382
:1029F000DF93EC017B018A01BA010E949F148111CF
:102A00000BC0CE010E944114CE01DF91CF911F91E6
:102A10000F91FF90EF9008951D830C83B70188817B
:102A200099810E943C29F0CFFC011182108213820F
:102A3000128215821482FB0101900020E9F7319780
:102A4000AF01461B570B0C94F314AF92BF92CF9279
:102A5000DF92EF92FF920F931F93CF93DF937C014E
:102A60006B015A0189012417350720F48B2D590178
:102A7000042F182F68EF71E0C7010E941415D601CA
:102A80001496CD91DC91AC16BD0620F50C171D07F0
:102A900008F4E801D601ED91FC911197EC0FFD1FB0
:102AA000108110826D917C916A0D7B1D61157105FD
:102AB000E9F0FB0101900020E9F73197AF01461BD7
:102AC000570BC7010E94F314F60180819181C80F52
:102AD000D91F1883C701DF91CF911F910F91FF90EC
:102AE000EF90DF90CF90BF90AF900895C7010E9404
:102AF0004114EACF2F923F924F925F926F927F9252
:102B00008F929F92AF92BF92CF92DF92EF92FF92FD
:102B10000F931F93CF93DF93CDB7DEB7CE55D2403F
:102B20000FB6F894DEBF0FBECDBFCB5ADD4F9983F1
:102B30008883C555D240C75ADD4F79836883C9550C
:102B4000D240FC018481882309F4E5C0E5E0CE2E63
:102B5000D12CEE24E394F12CA0900A02A00EB12E09
:102B6000B11CCB5ADD4FE881F981C555D240828135
:102B700090E08E219F21F501208130E02E213F2120
:102B8000232B09F4ADC0892B79F490913D04892F52
:102B90008E29981749F080933D0440E070E060E092
:102BA00090E080E00E94170BEE0CFF1CF1E0CF1AC2
:102BB000D10891F6E0910702E00FF12FF11DD080CE
:102BC000A0910402A00FB12FB11DE09106020E0FDB
:102BD000111D80910502803109F08BC0F5018081C3
:102BE000CB5ADD4FE881F981C555D2408283ED9003
:102BF000FC90F80100811181E114F10431F4011518
:102C0000110519F4DD2009F451C0609100017091A3
:102C10000101072E000C880B990B0E94C32420E0B1
:102C200030E048E454E40E9487264B015C01B70180
:102C3000FF0C880B990B0E94C324A50194010E94EC
:102C400022252B013C0120E030E0A9010E942F2722
:102C500020E030E040E05FE387FD53C0C301B201F4
:102C60000E941B260E94F9267B01B801110F880BD8
:102C7000990B0E94C324A50194010E9422254B01B7
:102C80005C0120E030E0A9010E942F2720E030E025
:102C900040E05FE387FD3AC0C501B4010E941B26F6
:102CA0000E94F9264D2DC7010E94170BC25ADD4F15
:102CB0000FB6F894DEBF0FBECDBFDF91CF911F914D
:102CC0000F91FF90EF90DF90CF90BF90AF909F90CB
:102CD0008F907F906F905F904F903F902F900895CE
:102CE000892B09F461CF90913D048E2D8095892325
:102CF00050CF6C91E62EF12CF8016081062F10E088
:102D00007BCFC301B2010E941A26ACCFC501B4012A
:102D10000E941A26C5CFCF5ADD4F19821882C1559D
:102D2000D2403E01FDEB6F1AFDEF7F0A9E012D5F41
:102D30003E4FC15BDD4F39832883CF54D2402E01F3
:102D40003DEF431A530A8CE091E0F30191838083B5
:102D500023E031E02C0F3D1F3383228380E091E09C
:102D600095838483178216827F926F925F924F922F
:102D70001F9280E48F9350E8852E912CCF5ADD4F1F
:102D8000A880B980C155D24062E2C62EE12C06E08F
:102D900021E840E0C75ADD4FE881F981C955D240AA
:102DA0006681848195810E94C80F0F900F900F90CB
:102DB0000F900F900F9081111AC2F3010680F781D6
:102DC000E02DC95ADD4FF983E883C755D240DE01B3
:102DD0001196FE01ED5FFE4FCF01C15BDD4F2881F3
:102DE0003981CF54D240821B930BC95ADD4F2881C1
:102DF0003981C755D2408217930718F481918D937A
:102E0000EBCFC95ADD4F88819981C755D240CF5F3A
:102E1000DE4F99838883C150D140EDB7FEB7C55AC4
:102E2000DD4FF983E883CB55D240C55BDD4F198276
:102E30001882CB54D240F201108211821282138286
:102E4000CC5ADD4F1882C455D240CD5ADD4F18827E
:102E5000C355D240E12CB12C912CC12C812CD12C0A
:102E6000312C212CC55BDD4F88819981CB54D24018
:102E7000C95ADD4F28813981C755D240821793073F
:102E800008F094C182019E01235B3D4FAE01425B7D
:102E90005D4FBE01655B7D4FCE0101960E94DA1346
:102EA000C25BDD4F8881CE54D240813A49F5F201B0
:102EB00080819181A281B3810197A105B10501F5BE
:102EC000B1101EC09E01235B3D4FAE01425B5D4FC2
:102ED000BE01655B7D4FCE0101960E94DA13C25B95
:102EE000DD4F8881CE54D240853809F04DC0F201C3
:102EF000808180930B02F8E02F0E311CBB24B39429
:102F0000C25BDD4F8881CE54D240813A09F091C036
:102F1000F20180819181A281B381892B8A2B8B2B35
:102F200009F087C0E11085C0A12CF12CB1103BC085
:102F3000EB2CA12CF12C882009F417C1CC2009F42A
:102F400014C1CD5ADD4F9881C355D24091110DC1A6
:102F5000C10133E0969587953A95E1F7E0E1FE12DD
:102F6000C0C0809304028E5F80930602F092050237
:102F70009110E9C0CD5ADD4FC882C355D240FA9CAA
:102F8000200C311C11246ECF893009F06BCFF20177
:102F900080819181A281B3810197A105B10509F4D6
:102FA000ADCF60CFEB2CC25BDD4F8881CE54D240D9
:102FB000813849F182019E01235B3D4FAE01425BA6
:102FC0005D4FBE01655B7D4FCE0101960E94DA1315
:102FD000C25BDD4F8881CE54D240853771F0853990
:102FE00079F0853001F7F20180819181A281B3816E
:102FF0000997A105B105B9F6D5CFF201F080D3CF7D
:10300000F201A080D0CFEE2009F495CFFA9C802D5C
:10301000112480930902C10143E0969587954A9552
:10302000E1F780930A02FA9C200C311C1124BE2C7B
:1030300019CFA12CF12CC25BDD4F8881CE54D24038
:10304000813809F478CFEE2009F475CF8537C1F0C7
:10305000853939F18930B1F4F20180819181A28101
:10306000B38180339105A105B105F1F481100AC047
:10307000F301ED0DF11D28E52083D3948E2C02C0C1
:10308000F201F08082019E01235B3D4FAE01425B65
:103090005D4FBE01655B7D4FCE0101960E94DA1344
:1030A000CACFF201A080EECF81339105A105B10511
:1030B00051F4C110E7CFF301ED0DF11D39E5308377
:1030C000D394CE2CDFCFC897A105B105D9F69110C6
:1030D000D9CFF301ED0DF11D87E58083D3949E2CAC
:1030E000D1CFF301308120E0383539F02181283506
:1030F00081F12281283579F522E0280F20930402FE
:1031000020E0393541F0F3012181293531F1228167
:10311000293529F522E0280F20930602F0920502B6
:10312000992009F427CF20E0373541F0F3012181C0
:103130002735B9F022812735B1F422E0820F809340
:103140000702F0920802CD5ADD4FC882C355D24023
:103150002AC021E0D2CF2FEFD0CF21E0DCCF2FEF5C
:10316000DACF21E0EBCF2FEFE9CF992009F407CF99
:10317000CC5ADD4FF881C455D240F1110AC0C101CB
:1031800023E0969587952A95E1F780930702F092C0
:1031900008028820F1F1CC2009F441C0CC5ADD4F5F
:1031A000C882C455D240EE2009F4E9CE0FB6F89497
:1031B000DEBF0FBECDBF80910402882341F0809115
:1031C0000602882321F08091070281112EC0CF5A78
:1031D000DD4F88819981C155D2400196CF5ADD4F8C
:1031E00099838883C155D240039709F0ACCDC35A67
:1031F000DD4FE881F981CD55D240EF2B09F456CD52
:1032000081E0CB5ADD4FE881F981C555D2408483F6
:103210004DCDCC5ADD4F9882C455D240B0CECC5A59
:10322000DD4F8882C455D240AACECF5FDE4F2881C1
:103230003981C150D140C35ADD4F39832883CD55E0
:10324000D240D5CF1F920F920FB60F9211248F93B9
:103250009F938091E1009091E100937F9093E10032
:1032600083FF0FC01092E90091E09093EB00109261
:10327000EC0092E39093ED001092300298E090936E
:10328000F00082FF22C093E09093E9009091F20059
:10329000992319F09AE39093E80090912D029923D5
:1032A00041F090912D02915090932D02911101C007
:1032B0005D9A90912C02992341F090912C029150AB
:1032C00090932C02911101C0289A84FF18C080911C
:1032D000E2008E7E81608093E2008091E1008F7E2B
:1032E0008093E10080912E028E7E806180932E0279
:1032F0009F918F910F900FBE0F901F90189580FF98
:10330000F7CF8091E2008E7E80618093E200809111
:10331000E1008E7E8093E10080912E028E7E81609E
:10332000E5CF1F920F920FB60F921124FF920F93C9
:103330001F932F933F934F935F936F937F938F933D
:103340009F93AF93BF93EF93FF93CF93DF93CDB74B
:10335000DEB76197DEBFCDBF1092E9008091E80033
:1033600083FF25C068E0CE010A960E948C0182EF9F
:103370008093E8008A8587FF36C09091E80090FF2F
:10338000FCCF982F907609F00EC19B854C855D850A
:103390002C85FD8491112EC0803849F580912F0233
:1033A0008093F1001092F1008EEF8093E800619617
:1033B0000FB6F894DEBF0FBECDBFDF91CF91FF9166
:1033C000EF91BF91AF919F918F917F916F915F919D
:1033D0004F913F912F911F910F91FF900F900FBE32
:1033E0000F901F9018959EEF9093E800CACF10920F
:1033F000F100D8CF913059F48111D6CF4130510529
:1034000099F680912F028D7F80932F02CDCF93303C
:1034100049F48111C9CF4130510531F680912F0215
:103420008260F2CF953041F48091E80080FFFCCFBC
:1034300020682093E300B8CF963009F088C008894F
:10344000198982E01092E90010922B0210922A0250
:10345000F8122FC010922902109228020E940B022B
:1034600099E09983FA8291E09E8394E09F8390EEA5
:10347000988791E3998720912A0230912B02275F48
:103480003F4F3C832B838D831092E90010922B02D7
:1034900010922A02109329020093280249E050E07A
:1034A000BE016F5F7F4F80E00E9466010E940B02A9
:1034B0007BCF10932902009328020E94F901DC01BE
:1034C00012960D911C910115110509F498C0D801AF
:1034D000ED91FC910480F581E02DBE01665F7F4F88
:1034E000C8010995009709F085C0F801008511858C
:1034F000EACFF3E0FF120CC08C858823F9F082300C
:1035000059F46CE08DE091E00E94A71B81114CCF33
:1035100081E28093EB004BCF833021F460E18CEFAC
:1035200090E0F2CF813021F468E083EF90E0ECCFBF
:10353000843071F76EE084EE90E0E6CF6EEC70E0E0
:10354000FB01449150E080E80E9466012DCF973046
:10355000F9F2983021F481E08093F10025CF993081
:1035600009F022CF8370A1F6E2E2F2E081E031E0DF
:1035700096E32191222371F08093E9003093EB00D0
:10358000DF0111972C912093EC009093ED008F5F59
:10359000873079F78EE78093EA001092EA008C85F5
:1035A0008093300201CF888999891092E9001092A6
:1035B0002B0210922A0290932902809328020E94E3
:1035C000F901DC0112960D911C910115110509F408
:1035D0009FCFD801ED91FC910190F081E02DBE01CB
:1035E000665F7F4FC80109958111DECEF801008525
:1035F0001185EBCF181619060CF4D6CE89CFF1E061
:10360000FF1277CF62ED70E09BCF1F920F920FB643
:103610000F9211242F933F934F935F936F937F9358
:103620008F939F93AF93BF93EF93FF938AE792E0BB
:103630000E94CD02FF91EF91BF91AF919F918F9129
:103640007F916F915F914F913F912F910F900FBE9E
:103650000F901F9018951F920F920FB60F92112482
:103660002F938F939F93EF93FF93E0918A02F091B2
:103670008B028081E0919002F091910282FD1BC04B
:103680009081809193028F5F8F73209194028217B3
:1036900041F0E0919302F0E0E658FD4F958F809362
:1036A0009302FF91EF919F918F912F910F900FBEF9
:1036B0000F901F9018958081F4CF1F920F920FB634
:1036C0000F9211242F933F938F939F93AF93BF93A8
:1036D00080910D0290910E02A0910F02B091100204
:1036E00030910C0223E0230F2D3758F50196A11DD0
:1036F000B11D20930C0280930D0290930E02A093B3
:103700000F02B09310028091110290911202A091C9
:103710001302B09114020196A11DB11D80931102F4
:1037200090931202A0931302B0931402BF91AF9131
:103730009F918F913F912F910F900FBE0F901F90EF
:10374000189526E8230F0296A11DB11DD2CFEF9246
:10375000FF920F931F93CF93DF93182FE92E062F1D
:1037600081E0860F880F0E94380183E00E943801B3
:10377000F12EC12FDE2DFE0184910E943801182FF9
:1037800080E00E943801812329F021969C2F9F1907
:10379000901788F3DF91CF911F910F91FF90EF90D9
:1037A00008956F927F928F929F92AF92BF92CF9225
:1037B000DF92EF92FF920F931F93CF93DF93EC0171
:1037C000842F6C8F4D8D70E060E0A82EB12C822E7E
:1037D000912C602E712C641770F56530710559F1CC
:1037E000DB01AA0FBB1FAA0FBB1FFE01EA0FFB1FC5
:1037F000EA5BFF4F9081392F37703A151B0409F0AF
:1038000087C0392F36953695369537703815190497
:1038100009F07EC09295969596959370961517042B
:1038200009F076C06E0196E4C90ED11CCA0EDB1EEB
:10383000C114D104F9F4453008F05BC0A4E04A9FFC
:10384000A00111246E01B6E4CB0ED11CC40ED51E0E
:103850002770220F220F220F982F9770292B902F5D
:103860009295990F990F907C292BF60120839D8DBD
:103870009F5F9D8FD70113969C911397937010E0D3
:10388000933029F412969C9112E097FD11E0402F9D
:10389000682FE881F981068CF78DE02DCE0109951E
:1038A000882339F1112329F18E8D8B3010F5282FC3
:1038B00030E0F901EE0FFF1FE20FF31FEC0FFD1FC9
:1038C000D70112969C9112979F7095A314969C9184
:1038D000149796A394E097A3C10ED11CF60181839F
:1038E00016968C919BA1981708F48BA38E8D8F5FF1
:1038F0008E8FDF91CF911F910F91FF90EF90DF900E
:10390000CF90BF90AF909F908F907F906F900895D1
:103910006F5F7F4F60CFEF92FF920F9302970E94ED
:10392000D11B0F91FF90EF900895CF93DF931092EA
:103930007D0210927C0288EE93E0A0E0B0E08093DC
:103940007E0290937F02A0938002B093810288E16F
:1039500091E090937B0280937A028DEC90E09093BB
:103960008702809386028CEC90E09093890280938A
:10397000880288EC90E090938B0280938A0289EC15
:1039800090E090938D0280938C028AEC90E090936B
:103990008F0280938E028EEC90E090939102809340
:1039A000900210929302109294021092950210923B
:1039B000960286E891E090937D0380937C031092B9
:1039C000840381E080938503109286038EE793E061
:1039D000909383038093820310927E0388E0809308
:1039E0007F038CE38093800310928103ECE7F3E084
:1039F00021E08EE793E015862687178694878387D4
:103A0000359633E0E73CF307B1F71092F20381E11A
:103A1000809317038CE793E0909322038093210314
:103A200080E391E090931E0380931D0384E591E071
:103A30009093200380931F0310923C0310923D0348
:103A400010923E0310923F031092400310924103E4
:103A500010927703109224031092260310922503EC
:103A600010922703109229031092280310922A0320
:103A700010922C0310922B0310922D0310922F03FF
:103A800010922E03109230031092320310923103E1
:103A900010923303109235031092340310923603C0
:103AA0001092380310923703E4E6F3E090E080E0F0
:103AB000DC01AA0FBB1FAA0FBB1FAD59BC4F2C9135
:103AC00028732C93108211820196349685309105CB
:103AD00079F7ADE1B3E090E080E095961C92959780
:103AE000382F28E0811120E096962C939697FC01C0
:103AF000EE0FFF1FEF01C80FD91FCC5BDC4F2881F1
:103B00002E7F2D7F28833111F6C03FE0E80FF91F8B
:103B1000EC5BFC4F330F330F20812370232B20836A
:103B2000019613968B309105C1F681E080933B039B
:103B300010923A0310923903E2EDF3E090E080E056
:103B400021913191232B09F0D8C0880F991FFC01D6
:103B5000EE52FC4F8DE193E0918380838AE591E002
:103B600090931E0380931D0380E891E090932003BF
:103B700080931F038AE291E09093190380931803C6
:103B800010921A0310921C03C1E0C093F703C09374
:103B9000F80389E094E09093FA038093F90310927C
:103BA000FC031092FB03109200041092FF0388EEB6
:103BB00093E0A0E0B0E08093010490930204A0930E
:103BC0000304B093040480E991E09093F40380939C
:103BD000F30388EA91E09093FE038093FD03C09382
:103BE0000A04C0930B0410920D0410920C0410925E
:103BF0000F0410920E0410921304109212041092EB
:103C000015041092140481EC809309040E94F901B8
:103C100063EF73E00E94340210923D0410923F045F
:103C200010923E04109241041092400410924204FB
:103C300080913504811112C01092300410922F042B
:103C400083E991E0909332048093310482E490E020
:103C50009093340480933304C093350480912704F7
:103C600081112CC0C1E0C0931A04C0931B0480E2F0
:103C700094E090931D0480931C0410921F041092F2
:103C80001E048AEB91E0909317048093160410921F
:103C90002204109221041092240410922304C09351
:103CA0002504C093260481EC809320040E94F9012E
:103CB00066E174E00E943402C0932704E09121047D
:103CC000F0912204309701F58FE294E09093220462
:103CD0008093210480912304909124042091330443
:103CE00030913404820F931F909324048093230413
:103CF000DF91CF91089531E009CF01968031910590
:103D000009F01ECF2BCFFC01808191810097D9F75C
:103D10008FE294E091838083DDCFCF93DF93CDB7A3
:103D2000DEB76F970FB6F894DEBF0FBECDBF7894A5
:103D300084B5826084BD84B5816084BD85B58260B0
:103D400085BD85B5816085BD80916E008160809361
:103D50006E001092810080918100826080938100CA
:103D600080918100816080938100809180008160DA
:103D70008093800080919100826080939100809177
:103D80009100816080939100809190008160809388
:103D900090008091C10084608093C1008091C10037
:103DA00082608093C1008091C10081608093C100D6
:103DB0008091C30081608093C3008091C0008260C5
:103DC0008093C0008091C20081608093C200809186
:103DD0007A00846080937A0080917A008260809378
:103DE0007A0080917A00816080937A0080917A00D5
:103DF000806880937A001092300210922F02109205
:103E00002E028091D70081608093D70080EA809352
:103E1000D80089B5806189BD89B5826089BD09B442
:103E200000FEFDCF61E070E080E090E00E947F0343
:103E30008091D8008F7C80618093D8008091E000D1
:103E4000807F8093E0008091E1008E7E8093E1008E
:103E50008DE08093E200559A209A269A0E943108BC
:103E60001FB7F8948091310281115AC046E651E0A3
:103E7000FA01949125E831E0F9018491E92FF0E00D
:103E8000EE0FFF1FE95BFE4FA591B4919C91892332
:103E900009F037C0EBE2F1E09491F9012491FA01C5
:103EA0008491882309F42DC09923E9F091509F3023
:103EB000D0F4E92FF0E0E15AF04E0C94342746207C
:103EC0004A206E1F3E204220731F731F731F4D2018
:103ED000532057205B206120731F65209091800044
:103EE0009F7790938000E82FF0E0EE0FFF1FE75CD4
:103EF000FE4FA591B4918FB7F8949C91292B2C93E8
:103F00008FBF81E10E9419018CB580618CBD8CB599
:103F100080648CBD8FE00E94190180E10E9419012C
:103F2000809131028F5F809331021FBF209A289ABF
:103F3000259868E188E80E945C0860E288E70E94B2
:103F40005C0860E088E70E945C0810E000E088E61A
:103F50000E9484080F5F1F4F80FFBDC061EC88ED99
:103F60000E945C0860E680ED0E945C0864E088EED8
:103F70000E945C0888EE0E94840882FFFBCF0E94AA
:103F8000600960E288EC0E945C0861E080E80E94C1
:103F90005C0848E153E060E08DE193E00E94130784
:103FA000E0918A02F0918B0282E08083E0918602A8
:103FB000F09187021082E0918802F091890280E1FD
:103FC000808310929202E0918E02F0918F0286E03F
:103FD0008083E0918C02F0918D02808180618083EA
:103FE000E0918C02F0918D02808188608083E09165
:103FF0008C02F0918D02808180688083E0918C0238
:10400000F0918D0280818F7D808381E080937802A2
:1040100087E392E0909311048093100480E490E091
:1040200090930D0480930C0410920F0410920E04D0
:104030001E0123E1220E311CCE0101964C0183B1F9
:10404000182F107285FD0CC088EC0E94840885FF33
:1040500003C00E94600910E2612F88EC0E945C0896
:1040600080917902813009F492C008F494C08230C2
:10407000E9F1833009F499C0D12C4FC090918000B0
:104080009F7D2FCF90918000977F2BCF94B59F7706
:1040900094BD29CF94B59F7DFBCF909190009F77E1
:1040A0009093900020CF909190009F7DF9CF9091B8
:1040B0009000977FF5CF9091C0009F779093C000BC
:1040C00012CF9091C0009F7DF9CF9091C200977F51
:1040D0009093C20008CF0F3F100709F038CF68EC6B
:1040E00070E080E090E00E947F0353CFD12C80915C
:1040F0001703807F803189F40E945A0468537F4FF0
:104100008F4F9F4F6093320270933302809334023B
:1041100090933502B0E2B093170302ED13E07801FB
:10412000F701819191917F01009739F0DC01ED91C8
:10413000FC910680F781E02D0995E2EFF3E0EE15A2
:10414000FF0571F780911703803409F466C080F58C
:10415000803209F44CC0803309F459C0813109F030
:104160006CC01092F203D8018D919D918D01009742
:1041700039F0DC01ED91FC910480F581E02D099589
:10418000E016F10681F782E18093170356C093E1B0
:104190009093170371CF80911703807F803109F4CA
:1041A0006BCFA1E1A093170367CFDD24D3949FCFFA
:1041B000813509F4C9C0803809F4D9C08035E9F5E2
:1041C00088EC0E94840886FF38C081E5809317033D
:1041D0000E945A046C5E7F4F8F4F9F4F6093320254
:1041E00070933302809334029093350226C00E946C
:1041F0005A0400913202109133022091340230911E
:104200003502601B710B820B930B97FD16C061E0AA
:1042100088EE0E945C0880E4B7CF88EE0E94840894
:1042200080FD0BC088ED0E948408682F686088EDCF
:104230000E945C08B0E5B093170380917802882350
:1042400009F4C7C280913D0490913602981709F491
:104250005BC01C8A1B8A1E8A1D8A188E1F8A4AE030
:10426000B40190E00E948E24F40101900020E9F74F
:104270003197AF0148195909B401C1010E94F314E3
:1042800062EC71E0C4010E9414154F89588D6B894E
:104290007C89C4010E94C714811103C0C4010E941B
:1042A000411441E050E067EF71E0C4010E94C7147F
:1042B000811103C0C4010E9441141A8E198E1C8EF4
:1042C0001B8E1E8E1D8E69817A816115710531F0FC
:1042D0004D815E81CE0149960E94F314C4010E9473
:1042E0005314C1010E9453144D8D5E8D698D7A8DDA
:1042F0008AE792E00E94CC0180913D0480933602CF
:10430000CE0149960E9453148AE792E00E94AD02C2
:10431000181619060CF05DC268EF71E0CE014996DF
:104320000E9414150E94660497FD11C18A30910500
:1043300009F40DC189831A8241E050E0B401CE0135
:1043400049960E94C714EECF0E945A044090320250
:1043500050903302609034027090350264197509F0
:104360008609970997FD69CF80E8809317031B8A18
:1043700088E08C8B8CE38D8BE0908203F09083033C
:104380003092830320928203D0928603940142E10B
:1043900050E060E08CE793E00E949011C82EF0920C
:1043A0008303E0928203811151C069847A844B8433
:1043B0005C84AD80EE81EF8F82EDE82E83E0F82EF5
:1043C000B12CD7018D919C91009709F041C0B39415
:1043D000B2E0EB0EF11CE0E1BE12F3CFF8018081F8
:1043E0009181009709F076C0C3940E5F1F4FF0E1F2
:1043F000CF12F4CF8091820390918303892B09F42B
:1044000059C0D092860320E040E060E08CE793E062
:104410000E94C307182F882309F44CC0682F8CE72B
:1044200093E00E941808009709F444C0FC01D4826C
:10443000612F8CE793E00E945F11C82E882309F456
:1044400084C0612F8CE793E00E94A1078C2D2FC0C0
:10445000DC01ED91FC910084F185E02D099581113D
:10446000B6CFF70180819181DC01ED91FC9100884C
:10447000F189E02D6F8D0995882309F4A8CFF70104
:1044800080819181DC01ED91FC910484F585E02D22
:10449000A201B3010995882379F06D2D8B2D0E941F
:1044A000FF0B813D09F493CF882309F44EC0823D70
:1044B00009F4C3CE80EA68CEF70180819181DC01E6
:1044C000ED91FC910684F785E02D6A2D0995811107
:1044D000E4CF7DCFDC01ED91FC910084F185E02DEE
:1044E0000995811181CFF80180819181DC01ED91E5
:1044F000FC910088F189E02D6F8D0995811109C02B
:104500006D2D8C2D0E94FF0B982F977F913D61F6AA
:104510006BCFF80180819181DC01ED91FC910484E5
:10452000F585E02DA201B301099581115DCFF80158
:1045300080819181DC01ED91FC910684F785E02D6D
:104540006A2D09958823E1F24FCF80E91DCE1C8AA0
:104550001B8A1E8A1D8A188E1F8A698D7A8D6115A5
:10456000710529F04D8D5E8DC1010E94F314CB8839
:10457000DC88C114D10439F00F89188D760101153A
:10458000110509F05BC067EC71E0C4010E941415CD
:10459000B401C1010E948414182FC4010E94531455
:1045A000112309F481C050E040E06CE2C1010E9497
:1045B00068147C018C010F5F1F4FA8016CE2C101E0
:1045C0000E9468146C01970148E050E0B101C401F9
:1045D0000E942515C4010E945D142B01C4010E9494
:1045E00053149601A801B101C4010E942515C4010C
:1045F0000E945D145B01C4010E94531441145104D4
:1046000019F4A114B10429F040E0B501C2010E94DF
:10461000170BC1010E945314CE0149960E945314F6
:1046200080E090E0892B09F40ACD0E94B90288232A
:1046300009F405CD0E94000002CD75015701FFEF7E
:10464000AF1ABF0AD7018C91082E000C990B0E945B
:10465000A824892B91F7015011090C0D1D1DF8019B
:104660008081082E000C990B0E94A824892B31F020
:104670000E151F0518F001501109F1CF0F5F1F4FE4
:10468000A8014E195F09588F4F8BCE14DF0420F418
:10469000B701C6010E942129EB89FC898F89988D79
:1046A000E80FF91F10826FCF60ED71E0C4010E9426
:1046B0001415B401C1010E948414182FC4010E9472
:1046C0005314112399F050E040E069E2C1010E94C7
:1046D00068149C0149E050E0B101C4010E94251515
:1046E000C4010E9453140E94900B93CF6AED71E0B5
:1046F000C4010E941415B401C1010E948414182F32
:10470000C4010E945314112389F04EE050E067EE7B
:1047100071E08AE792E00E94CC0142E050E066EF4F
:1047200071E08AE792E00E94CC0173CF69EF71E0FB
:10473000C4010E941415B401C1010E948414182FF1
:10474000C4010E945314112309F463CF50E040E0E8
:104750006CE2C1010E9468147C018C010F5F1F4F45
:10476000A8016CE2C1010E9468143C0197014AE073
:1047700050E0B101C4010E942515C4010E945D14DE
:104780006B01C4010E9453149301A801B101C4013B
:104790000E942515C4010E945D142B01C4010E94D2
:1047A0005314C114D10421F44114510409F431CF3C
:1047B000B201C6010E94AB0B0E94900B66277727BF
:1047C00064197509882799278C199D090E94AB0BDC
:1047D00020CF10917702112391F080913D049091A8
:1047E0003602981761F080933D028093360240E4D0
:1047F00050E067E372E083EF93E00E944A0A809101
:104800000E0490910F04181619060CF009CF809130
:104810003C028130D1F08230D9F080913702893F5B
:1048200059F540E450E067E372E083EF93E00E94C3
:104830004A0A21E02093770210920F0410920E048E
:1048400010923C0210923D02EBCE0E94900BE5CFFD
:1048500080913E0290913F028138FCE09F0714F066
:1048600080E89CE08436910514F484E690E090930F
:10487000010180930001D1CF1123F1F28091380220
:10488000082E000C990B60913A02062E000C770B53
:10489000009721F46115710509F4C2CE40E00E9431
:1048A000170BCACF1F93FC0199278827BC01E894F6
:1048B00011911032E9F3193010F01E30C8F31B3299
:1048C00051F01D3249F4689406C00E947924610FAA
:1048D000711D811D911D119110531A30B0F33EF4DA
:1048E00090958095709561957F4F8F4F9F4F1F9149
:1048F0000895592F482F372F262F660F771F881FAF
:10490000991F660F771F881F991F620F731F841FDF
:10491000951F660F771F881F991F0895BB27FB01FE
:104920005527AA27880F991FAA1FA41710F0A41BA8
:1049300083955051B9F7A05DAA3308F0A95DA19302
:10494000009779F7B111B1931192CB010C94B12476
:1049500091110C948F25803219F089508550C8F739
:104960000895DC01FC01672F71917723E1F73297FD
:1049700004C07C916D9370836291AE17BF07C8F33A
:104980000895E89409C097FB3EF490958095709542
:1049900061957F4F8F4F9F4F9923A9F0F92F96E98B
:1049A000BB279395F695879577956795B795F11100
:1049B000F8CFFAF4BB0F11F460FF1BC06F5F7F4F9D
:1049C0008F4F9F4F16C0882311F096E911C07723AF
:1049D00021F09EE8872F762F05C0662371F096E8B8
:1049E000862F70E060E02AF09A95660F771F881F87
:1049F000DAF7880F9695879597F90895990F00082B
:104A0000550FAA0BE0E8FEEF16161706E807F907A0
:104A1000C0F012161306E407F50798F0621B730B3B
:104A2000840B950B39F40A2661F0232B242B252BBC
:104A300021F408950A2609F4A140A6958FEF811D5F
:104A4000811D08950E9435250C94A9250E949B255F
:104A500038F00E94A22520F0952311F00C949225A5
:104A60000C94982511240C94DD250E94BA2570F32E
:104A7000959FC1F3950F50E0551F629FF001729F03
:104A8000BB27F00DB11D639FAA27F00DB11DAA1F12
:104A9000649F6627B00DA11D661F829F2227B00D5F
:104AA000A11D621F739FB00DA11D621F839FA00DEA
:104AB000611D221F749F3327A00D611D231F849F3A
:104AC000600D211D822F762F6A2F11249F57504091
:104AD0009AF0F1F088234AF0EE0FFF1FBB1F661F0C
:104AE000771F881F91505040A9F79E3F510580F0D5
:104AF0000C9492250C94DD255F3FE4F3983ED4F3AB
:104B0000869577956795B795F795E7959F5FC1F778
:104B1000FE2B880F911D9695879597F908959927F3
:104B20008827089597F99F6780E870E060E008950E
:104B30009FEF80EC089500240A94161617061806B5
:104B40000906089500240A94121613061406050691
:104B50000895092E0394000C11F4882352F0BB0F22
:104B600040F4BF2B11F460FF04C06F5F7F4F8F4F85
:104B70009F4F089557FD9058440F551F59F05F3FC0
:104B800071F04795880F97FB991F61F09F3F79F06F
:104B900087950895121613061406551FF2CF4695F1
:104BA000F1DF08C0161617061806991FF1CF869573
:104BB0007105610508940895E894BB276627772757
:104BC000CB0197F908952F923F924F925F926F9287
:104BD0007F928F929F92AF92BF92CF92DF92EF928D
:104BE000FF920F931F93CF93DF93CDB7DEB7CA1B0E
:104BF000DB0B0FB6F894DEBF0FBECDBF09942A8839
:104C0000398848885F846E847D848C849B84AA84E0
:104C1000B984C884DF80EE80FD800C811B81AA816D
:104C2000B981CE0FD11D0FB6F894DEBF0FBECDBF38
:104C3000ED0108955058BB27AA270E9432260C94F4
:104C4000A9250E949B2538F00E94A22520F039F466
:104C50009F3F19F426F40C9498250EF4E095E7FB99
:104C60000C949225E92F0E94BA2558F3BA176207CF
:104C700073078407950720F079F4A6F50C94DC25DA
:104C80000EF4E0950B2EBA2FA02D0B01B901900167
:104C90000C01CA01A0011124FF27591B99F0593FAB
:104CA00050F4503E68F11A16F040A22F232F342FF3
:104CB0004427585FF3CF469537952795A795F04041
:104CC0005395C9F77EF41F16BA0B620B730B840B56
:104CD000BAF09150A1F0FF0FBB1F661F771F881F0E
:104CE000C2F70EC0BA0F621F731F841F48F4879566
:104CF00077956795B795F7959E3F08F0B0CF939558
:104D0000880F08F09927EE0F9795879508950E94D0
:104D10009B260C94A9250E94A22558F00E949B2551
:104D200040F029F45F3F29F00C94922551110C9426
:104D3000DD250C9498250E94BA2568F39923B1F3D8
:104D4000552391F3951B550BBB27AA2762177307B1
:104D5000840738F09F5F5F4F220F331F441FAA1F45
:104D6000A9F335D00E2E3AF0E0E832D09150504001
:104D7000E695001CCAF72BD0FE2F29D0660F771FAF
:104D8000881FBB1F261737074807AB07B0E809F095
:104D9000BB0B802DBF01FF2793585F4F3AF09E3F1A
:104DA000510578F00C9492250C94DD255F3FE4F3D7
:104DB000983ED4F3869577956795B795F7959F5F5D
:104DC000C9F7880F911D9695879597F90895E1E0A9
:104DD000660F771F881FBB1F621773078407BA0708
:104DE00020F0621B730B840BBA0BEE1F88F7E09563
:104DF00008950E9400276894B1110C94DD25089550
:104E00000E94C22588F09F5798F0B92F9927B75173
:104E1000B0F0E1F0660F771F881F991F1AF0BA955E
:104E2000C9F714C0B13091F00E94DC25B1E00895BB
:104E30000C94DC25672F782F8827B85F39F0B93FAD
:104E4000CCF3869577956795B395D9F73EF4909511
:104E50008095709561957F4F8F4F9F4F08950E9469
:104E6000FE2408F48FEF0895EE0FFF1F0590F491D4
:104E7000E02D09940F931F93CF93DF938230910518
:104E800010F482E090E0E0914705F091480530E0B1
:104E900020E0B0E0A0E0309799F42115310509F445
:104EA0004AC0281B390B24303105D8F58A819B81F3
:104EB0006115710589F1FB0193838283FE0111C0A5
:104EC000408151810281138148175907E0F048174A
:104ED000590799F4109761F012960C931297139654
:104EE0001C933296CF01DF91CF911F910F910895BE
:104EF0000093470510934805F4CF2115310551F073
:104F00004217530738F0A901DB019A01BD01DF0107
:104F1000F801C1CFEF01F9CF909348058093470581
:104F2000CDCFFE01E20FF31F8193919322503109FF
:104F300039832883D7CF2091450530914605232B0F
:104F400041F42091040130910501309346052093EE
:104F5000450520910201309103012115310541F4ED
:104F60002DB73EB74091060150910701241B350B28
:104F7000E0914505F0914605E217F307A0F42E1BDA
:104F80003F0B2817390778F0AC014E5F5F4F2417AD
:104F9000350748F04E0F5F1F509346054093450577
:104FA000819391939FCFF0E0E0E09CCFCF93DF938C
:104FB0000097E9F0FC01329713821282A091470515
:104FC000B0914805ED0130E020E01097A1F4208178
:104FD0003181820F931F2091450530914605281796
:104FE000390709F061C0F0934605E0934505DF916C
:104FF000CF910895EA01CE17DF07E8F54A815B817A
:105000009E0141155105B1F7E901FB83EA834991FE
:105010005991C40FD51FEC17FD0761F48081918170
:105020000296840F951FE901998388838281938179
:105030009B838A83F0E0E0E012968D919C91139718
:105040000097B9F52D913C911197CD010296820FF1
:10505000931F20914505309146052817390739F6E9
:10506000309751F51092480510924705B0934605C8
:10507000A0934505BCCFD383C28340815181840F67
:10508000951FC817D90761F44E5F5F4F88819981DA
:10509000480F591F518340838A819B819383828368
:1050A0002115310509F0B0CFF0934805E09347058D
:1050B0009ECFFD01DC01C0CF13821282D7CFB0E0BA
:1050C000A0E0E5E6F8E20C94E5258C01009751F4A8
:1050D000CB010E943A278C01C801CDB7DEB7E0E1D1
:1050E0000C940126FC01E60FF71F9C0122503109A8
:1050F000E217F30708F49DC0D901CD91DC91119717
:10510000C617D70798F0C530D10530F3CE01049704
:105110008617970708F3C61BD70B2297C193D19325
:105120006D937C93CF010E94D627D6CF5B01AC1A3A
:10513000BD0A4C018C0E9D1EA0914705B0914805FB
:10514000512C412CF12CE12C109731F58091450523
:10515000909146058815990509F05CC046165706DA
:1051600008F058C08091020190910301009741F42A
:105170008DB79EB74091060150910701841B950B96
:10518000E817F90708F055C0F0934605E093450588
:10519000F90171836083A0CF8D919C911197129634
:1051A0006C90129713967C901397A815B90559F532
:1051B0006C0142E0C40ED11CCA14DB0420F1AC0126
:1051C0004A195B09DA011296159780F062827382A0
:1051D00051834083D9016D937C93E114F10471F004
:1051E000D7011396FC93EE93129776CF22968C0FED
:1051F0009D1FF90191838083F301EFCFF093480560
:10520000E093470569CF4816590608F42C017D0143
:10521000D3019ACFCB010E943A277C01009749F035
:10522000AE01B8010E942129C8010E94D62787013A
:1052300053CF10E000E050CF81E090E0F8940C9460
:105240005129FB01DC0102C001900D9241505040F8
:10525000D8F70895DC0101C06D9341505040E0F74C
:105260000895FC018191861721F08823D9F79927A9
:1052700008953197CF010895FB01DC0101900D9253
:105280000020E1F70895FB01DC014150504030F06F
:105290008D910190801919F40020B9F7881B990BA2
:0652A0000895F894FFCF11
:1052A6002003000049058000000000001B140000D8
:1052B60000009B0500000000EE02CC017C023A03D0
:1052C600AD028B029F02000000007A15000000006C
:1052D600B611FC0ADC060F0EF00AFB0AF90AF70AF9
:1052E600F50AF5061307F30A3407ED0AD11B5B141A
:1052F600FEFF00008B1C00000000B611FC0ADC0655
:10530600EA0EF00AFB0AF90AF70AF50AF506130788
:10531600F30AD80AED0ABD0AEB0AD70AFEFF000017
:10532600CD0A000000001808C307A107000000000E
:105336009009020AE509B30AAB0A860A6A0A690AEB
:105346004F0A4A0AF6FF0000650ACC01BA0A680A43
:10535600A30AA00A830A0000000098041105D604D7
:10536600BB044254583A006B6D2E6D6F766528006B
:105376006B6D2E636C69636B28006B6D2E766572A0
:1053860073696F6E2829006B6D626F783A20363923
:105396002E3432300A000D0A006B6D2E73696C656F
:0453A6006E742800F9
:00000001FF
